:100000000C9462000C948A000C948A000C948A0070
:100010000C948A000C948A000C948A000C948A0038
:100020000C948A000C948A000C948A000C948A0028
:100030000C948A000C948A000C948A000C948A0018
:100040000C9486030C948A000C948A000C948A0009
:100050000C948A000C948A000C948A000C948A00F8
:100060000C948A000C948A000000000024002700F1
:100070002A0000000000250028002B0000000000DE
:1000800023002600290004040404040404040202DA
:100090000202020203030303030301020408102007
:1000A0004080010204081020010204081020000012
:1000B0000008000201000003040700000000000027
:1000C0000000A50511241FBECFEFD8E0DEBFCDBFD5
:1000D00011E0A0E0B1E0EAE4FCE002C005900D927E
:1000E000A033B107D9F721E0A0E3B1E001C01D9230
:1000F000A03CB207E1F710E0C2E6D0E004C02197CF
:10010000FE010E941D06C136D107C9F70E94D00327
:100110000C9423060C94000096E0899FD0011124D2
:10012000A75CBE4F90967C936E935F9791E09196FB
:100130009C939197E091A601F091A7019091A50160
:10014000992339F0309751F0811108C08091550101
:100150000994309719F05C968C91FACF0895CF925C
:10016000DF92EF92FF920F931F9396E0899FF00129
:100170001124E75CFE4F11A2278D30A121303105FB
:1001800051F178F02230310509F451C023303105A6
:1001900009F452C01F910F91FF90EF90DF90CF9024
:1001A00008956623B9F361E070E00E948C002FB7D8
:1001B000F8948091350190913601A0913701B0916A
:1001C00038012FBF8093910190939201A0939301E6
:1001D000B0939401DFCF9FB7F894C0903501D090D1
:1001E0003601E0903701F09038019FBF00919101F6
:1001F000109192012091930130919401C01AD10A7B
:10020000E20AF30A0091A3011091A40130E020E07A
:100210000C151D052E053F0550F462E070E01F919E
:100220000F91FF90EF90DF90CF900C948C006111B4
:10023000B1CF63E070E0F3CF70E060E0F0CFAF9259
:10024000BF92CF92DF92EF92FF920F931F93CF93C3
:10025000DF936C017B018B01040F151FEB015E0125
:10026000AE18BF08C017D10759F06991D601ED91BA
:10027000FC910190F081E02DC6010995892B79F759
:10028000C501DF91CF911F910F91FF90EF90DF900B
:10029000CF90BF90AF900895833081F028F48130E3
:1002A00099F08230A9F008958730A9F08830C9F01C
:1002B0008430B1F4809180008F7D03C080918000F4
:1002C0008F7780938000089584B58F7784BD0895DB
:1002D00084B58F7DFBCF8091B0008F778093B00085
:1002E00008958091B0008F7DF9CFCF93DF93282FB1
:1002F00030E0F901E255FF4F8491F901E656FF4FD6
:10030000D491F901EA57FF4FC491CC23A1F0811198
:100310000E944C01EC2FF0E0EE0FFF1FE458FF4F5E
:10032000A591B491EC91ED2381E090E009F480E097
:10033000DF91CF91089580E090E0FACF862F0C9462
:1003400075011F93CF93DF93282F30E0F901E25519
:10035000FF4F8491F901E656FF4FD491F901EA5716
:10036000FF4FC491CC23A9F0162F81110E944C019C
:10037000EC2FF0E0EE0FFF1FEE58FF4FA591B49168
:100380008FB7F894EC91111108C0D095DE23DC935F
:100390008FBFDF91CF911F910895DE2BF8CF862F6D
:1003A000642F0C94A101CF93DF9390E0FC01E656FB
:1003B000FF4F24918A579F4FFC0184918823C9F0F5
:1003C00090E0880F991FFC01E859FF4FA591B49167
:1003D000FC01EE58FF4FC591D49161110DC09FB73C
:1003E000F8948C91209582238C93888128232883EC
:1003F0009FBFDF91CF910895623051F49FB7F89479
:100400003C91822F809583238C93E8812E2BEFCF14
:100410008FB7F894EC912E2B2C938FBFEACF862FB9
:10042000642F0C94D3013FB7F894809131019091DF
:100430003201A0913301B091340126B5A89B05C0CB
:100440002F3F19F00196A11DB11D3FBFBA2FA92F53
:10045000982F8827BC01CD01620F711D811D911D50
:1004600042E0660F771F881F991F4A95D1F70895BC
:10047000089590E080E00895CF93DF93EC0160E071
:100480008E810E94A10161E08E810E94A10160E045
:100490008E810E94A1018BE891E00197F1F7DF9135
:1004A000CF910895CF92DF92EF92FF920F931F9317
:1004B000CF93DF936C017C0187E0E80EF11CD0E064
:1004C000C0E0062F10E0B8010C2E02C075956795AC
:1004D0000A94E2F76170F70181917F010E94A10106
:1004E0002196C430D10579F7C601DF91CF911F91D4
:1004F0000F91FF90EF90DF90CF900C943C02CF9241
:10050000DF92EF92FF920F931F93CF93DF93EC0153
:10051000F62E642F8C810E94A1018D818F3F19F0EE
:1005200060E00E94A1010F2D10E08F8584FF25C09F
:100530006E0187E0C80ED11CF12CE12CB8010E2C05
:1005400002C0759567950A94E2F76170F601819192
:100550006F010E94A101FFEFEF1AFF0A88E0E81681
:10056000F10461F7CE01DF91CF911F910F91FF90C0
:10057000EF90DF90CF900C943C02B80184E0759529
:1005800067958A95E1F7CE010E9452026F2DCE0148
:10059000DF91CF911F910F91FF90EF90DF90CF905F
:1005A0000C94520240E0682F88EA91E00C947F029C
:1005B00081E00E94D2028BE39FE10197F1F7089559
:1005C000CF93DF93613029F09091B70198609093B9
:1005D000B7016093BB011092BC0190E49093BD0100
:1005E0008093BE01805C8093BF0161E08091AC018B
:1005F0000E94D3018091AD018F3F19F061E00E940C
:10060000D30161E08091AE010E94D301C8EAD1E03C
:100610009E01285A31408091B70184FD0BC084E0CF
:1006200090E021962817390744F461E08E810E94FA
:10063000D301EECF88E090E0F4CF8BE39DE001970B
:10064000F1F760E08091AC010E94A10160E080912F
:10065000AE010E94A1018091AD018F3F19F060E0D1
:100660000E94A1018091B70184FD34C063E088EA53
:1006700091E00E945202CBE4D6E4CE010197F1F75B
:1006800063E088EA91E00E9452022197F1F763E06B
:1006900088EA91E00E94520283E592E00197F1F727
:1006A00062E088EA91E00E9452028091B701806284
:1006B0000E94D20284E08093B8018CE00E94D202B2
:1006C0000E94D80282E08093B90186E0DF91CF9149
:1006D0000C94D20280620E94D2028BE496E40197CD
:1006E000F1F78091B70180620E94D20283E592E027
:1006F0000197F1F78091B70180620E94D202D5CFB5
:1007000041E00E947F0281E090E008951F920F92E5
:100710000FB60F9211242F933F938F939F93AF9314
:10072000BF938091350190913601A0913701B0912E
:1007300038013091300123E0230F2D3758F5019611
:10074000A11DB11D20933001809335019093360196
:10075000A0933701B093380180913101909132011B
:10076000A0913301B09134010196A11DB11D809378
:10077000310190933201A0933301B0933401BF91C2
:10078000AF919F918F913F912F910F900FBE0F903E
:100790001F90189526E8230F0296A11DB11DD2CFF8
:1007A000789484B5826084BD84B5816084BD85B54C
:1007B000826085BD85B5816085BD80916E00816058
:1007C00080936E00109281008091810082608093FE
:1007D0008100809181008160809381008091800000
:1007E0008160809380008091B10084608093B1002B
:1007F0008091B00081608093B00080917A00846025
:1008000080937A0080917A00826080937A00809150
:100810007A00816080937A0080917A00806880936A
:100820007A001092C10064E083E00E94E002812C13
:10083000912C5401839440E0642E40E0742E21E01A
:100840002093A5018FB7F89440913501509136015E
:1008500060913701709138018FBF8091950190911F
:100860009601A0919701B0919801481B590B6A0B12
:100870007B0B8091A1019091A201B0E0A0E08417D0
:100880009507A607B70708F016C1C0E080919F0141
:10089000C81760F4E0919B01F0919C01EC0FF11DF1
:1008A00062E080810E94D301CF5FF0CF512C809114
:1008B000A001581608F05FC0052D10E0E0919D01E1
:1008C000F0919E01E00FF11F61E080810E94D30151
:1008D000E0919D01F0919E01E00FF11F60E08081A9
:1008E0000E94A101D501C401052C04C0880F991FE5
:1008F000AA1FBB1F0A94D2F76C017C01E094F0940C
:10090000412C80919F014816F8F4C42DD0E0E0916D
:100910009B01F0919C01EC0FFD1F80810E947501ED
:100920002496CC0FDD1FC75CDE4F892B41F48881F4
:1009300099818C299D29998388834394E2CF88816A
:1009400099818E219F21F7CFE0919D01F0919E0129
:10095000E00FF11F61E080810E94A10180919D0163
:1009600090919E01080F191F60E0F80180810E949C
:10097000D30153949CCF09E311E0E8018F8D98A136
:10098000892B31F41C8E8FEF9FEF9E8F8D8F19A2D4
:100990002696E5E7F1E0EC17FD0781F7F12C809151
:1009A0009F01F81608F053C0E12CCF2CD12CCC0CB1
:1009B000DD1CC6018F5B9E4F6C012091A001E216E9
:1009C00008F043C0F601608171810E2C02C076955B
:1009D00067950A94E2F7F29E900111242E0D311DC5
:1009E000E9E3F1E080E0458D568D2417350709F4E1
:1009F000AAC08F5F36968A30B1F760FF24C0E9E362
:100A0000F1E090E080E0448D411118C0E09199013F
:100A1000F0919A01E20FF31F408156E0589FF001D8
:100A2000599FF00D1124E75CFE4F448F368F258FC0
:100A300010A2178E61E00E94AF0005C001963696A5
:100A40008A30910501F7E394B8CFF394A8CF80E002
:100A5000F80191A19111892F0A5F1F4F0C171D07F3
:100A6000B9F79FB7F89440913501509136016091E4
:100A70003701709138019FBF4093950150939601C3
:100A800060939701709398018823A9F080915A018F
:100A9000882389F08091580190915901019759F468
:100AA000C0915501C1110AC06114710409F4C7CE87
:100AB0000E940000C4CE1092A501F6CF0E94D80279
:100AC000E1E08091BB018111E0E0E195F0E0E855C3
:100AD000FE4F848980680E94D20245E050E069E2BE
:100AE00071E088EA91E00E941F0141E06C2F88EAE2
:100AF00091E00E947F020E9413021B012C0188EEEC
:100B0000C82E83E0D82EE12CF12C0E94130262192A
:100B1000730984099509683E734081059105A8F31E
:100B2000F1E0CF1AD108E108F10828EE220E23E007
:100B3000321E411C511CC114D104E104F10429F7F7
:100B40000E94D802B1CF617076CF1092AB011092A3
:100B5000AA0181E291E09093A9018093A80181E02C
:100B60008093AC018FEF8093AD011092AE018DE0C8
:100B70008093AF018CE08093B0018BE08093B10152
:100B80008AE08093B2011092B3011092B4011092E6
:100B9000B5011092B6011092B70161E080E10E94A8
:100BA000E00210923B0110923F0110923E01109220
:100BB000400187E191E090933A0180933901E5E5A6
:100BC000F1E01082148213821582369681E0E139B9
:100BD000F807B9F783E091E090939C0180939B0123
:100BE00080E091E090939E0180939D0184E080934A
:100BF0009F0183E08093A00187E091E090939A01A8
:100C0000809399018AE090E09093A2018093A101E2
:100C100084EF91E09093A4018093A3011092A70127
:100C20001092A601109295011092960110929701D0
:100C3000109298011092A5010895EE0FFF1F0590E4
:0A0C4000F491E02D0994F894FFCF21
:100C4A00080706050403023132333435363738399A
:100C5A002A3023000000000F02CF019E010000008D
:100C6A000080031F01390238024B65793A200000DF
:00000001FF
